:1000000042C0D9C15BC05AC059C058C057C056C0C1
:1000100055C054C053C052C051C050C04FC04EC054
:100020004DC04CC04BC04AC049C048C047C046C084
:1000300045C044C009021200010100A0C809040023
:1000400000000000000012010002FF000008C016BE
:10005000DC050501010200011803550053004200B0
:1000600061007300700043006C006F006E0065005B
:1000700012035000680079005300690078003600D0
:1000800036000403090411241FBECFEFD4E0DEBF05
:10009000CDBF11E0A0E0B1E0EEE3F3E102C00590D6
:1000A0000D92A230B107D9F721E0A2E0B1E001C082
:1000B0001D92AC34B207E1F7F6D83FC9A1CF1F9328
:1000C000CF93DF9360912801635067FF36C0809122
:1000D000010184FF04C0909100019F3F59F494E115
:1000E00002C0915011F189B18C70D9F3DF91CF9199
:1000F0001F910895192F993008F04FC0892F811B47
:10010000809300018091170128E8822780931701CE
:10011000911127C060E088E191E049D184E09FEF30
:100120009093000180930101DACF1092290110927F
:100130002201DF91CF911F910895209125018CE03C
:1001400090E0821B9109EC01C45DDE4F8091240197
:100150008D3291F18091230187FD55C010922801C5
:10016000B6CF8091230187FD1AC0E0912601F0915E
:10017000270186FF52C02FEF210F30E02F5F3F4F46
:100180002E0F3F1F88E191E04491DC014C930196D2
:1001900031962E173F07C1F756C018E0AFCF612F39
:1001A00088E191E016D7182F893008F450C08FEFFE
:1001B000809300018EE1B6CF683081F683EC8093A6
:1001C00017018AE5809301011092230188818076CE
:1001D00009F047C02A81109220019981911150C0E5
:1001E0001092210180E291E09093270180932601F3
:1001F00082E09F81911104C09E81981708F4892F95
:1002000080930001ABCFCE0160D78F3FA9F1882347
:1002100009F4A4CF10920001A1CFDF0188E191E0A1
:100220002FEF210F30E0BF016F5F7F4F620F731F11
:100230004D91EC014993CE01A617B707C9F72F5F7F
:100240003F4F2E0F3F1F3093270120932601612F30
:1002500088E191E0ACD084E0810F183009F462CFDE
:100260005ECFCE0129D58F3F21F6988197FD8E81F3
:1002700090E890932301C4CF8EE1809301016ECF6B
:10028000953079F09630F1F09830A1F0993029F15D
:100290009A3061F120E231E030932701209326016A
:1002A000A8CF2093290120E231E030932701209349
:1002B00026019FCF8BE291E0909327018093260146
:1002C00081E097CF9B81913051F1923099F1933039
:1002D000A9F090E4909323018CCF20932B0120E28E
:1002E00031E0309327012093260183CF80E291E013
:1002F000909327018093260181E07BCF222381F117
:10030000213019F1223029F788E590E090932701F8
:100310008093260180E48093230188E16ACF86E4FC
:1003200090E0909327018093260180E4809323013D
:1003300082E15FCF84E390E09093270180932601D0
:1003400080E48093230182E154CF80E790E0909392
:1003500027018093260180E48093230182E149CF25
:1003600082E890E0909327018093260180E48093B7
:10037000230184E03ECFE9E6F0E080818360808362
:10038000E89A0895A82FB92F80E090E041E050EA64
:10039000609530E009C02D9182279795879510F0E0
:1003A00084279527305EC8F36F5FA8F30895EADFCE
:1003B0008D939D930895CF93CFB7CF93DF93C3953C
:1003C0004B9BE9F74B9B0BC04B9B09C04B9B07C05A
:1003D0004B9B05C04B9B03C04B9B01C089C06F93D7
:1003E000C0912501DD27C45DDE4F2F9365E54B9B52
:1003F00003C02F916F91E6CF0F931F934F9320E08F
:1004000040E15F9309B10C7003FB27F93F9350E083
:100410003BE039C01C7040642F77012F5F5F1EC026
:10042000406819B11C702F7752501FC0406409B149
:100430002F770C70D1F15F5F00C023C0406219B10B
:100440002F771C7091F15F5F00C025C00C701027E2
:10045000515012F45D5F0000115027952C3F19B1E7
:10046000C8F61C700127015027952C3FC8F642277B
:10047000499309B10C7010274F73115027952C3FE9
:10048000A8F64695469519B11C7079F001270150E0
:1004900027952C3F98F66B5A60F3315009B1B0F6AE
:1004A00000C011E01CBB002717C03B503195C31B97
:1004B000D04011E01CBB0881033CF9F00B34E9F09B
:1004C000209122011981110F1213EDCF093651F13C
:1004D0000D3211F0013E39F700932A013F915F91EF
:1004E0004F911F910F912F916F91CCB3C0FD67CFAA
:1004F000DF91CF91CFBFCF91189520912A01222370
:1005000069F310912801112339F534303AF1309311
:10051000280120932401109125013BE0311B3093E9
:1005200025011CC0009128010130B4F40AE5309186
:10053000010134FD14C000930101C7E1D1E013C0F3
:10054000052710E000C000000BB91AC0052710E015
:10055000221F1DC010E021C04AE502C032ED432F2A
:10056000C4E1D0E032E01AB11C605B9A0BB11AB959
:100570005CE020E865E320FF05270BB92795179578
:100580001C3FF0F66695B8F7B1F720FF05270BB9C9
:10059000279517951C3FD0F62795179517FF052728
:1005A00000001C3F0BB9B0F629913A9519F7037F6B
:1005B00010912901110FC651D0400BB911F01093C1
:1005C000220111E01CBB08601AB1137F402F437F4A
:1005D00054E05A95F1F70BB91AB94BB97FCF482FB0
:1005E00058E080E047FD1CC02B98440F880F1C99F1
:1005F0008F5F2D9A3091B200209147019091B20007
:10060000931B9217D8F32D983091B2002091470197
:100610009091B200931B9217D8F3515019F7089597
:100620002B9AE3CF8EBD0DB407FEFDCF8EB5089596
:10063000CF93DF9300D000D0CDB7DEB769837A8344
:100640008B839C83DC01CB0121E1B695A79597951F
:1006500087952A95D1F720914601281709F18093B3
:100660004601E0914301F09144018DE40995E09148
:100670004301F091440180E00995E0914301F0913C
:100680004401809146010995E0914301F0914401B4
:1006900080E00F900F900F900F90DF91CF91099411
:1006A0000F900F900F900F90DF91CF910895809150
:1006B00045018CBD809142018DBD0895811110C00E
:1006C00082E193E0909344018093430181E0809321
:1006D000470182E58093450181E0809342010895BE
:1006E0008830B8F022E133E0309344012093430195
:1006F0001092420191E0909347018C3009F443C07D
:10070000F8F48930E1F18B3059F581E580934501AA
:1007100008952FEE32E03093440120934301853059
:10072000E1F140F48330A9F18430A1F488E18093B1
:1007300047010895863001F183E0809347010895D1
:100740008D30A9F08E3029F680E580934501909395
:1007500042010895823079F480E68093470108953C
:10076000883009F0B6CF83E580934501089580E590
:1007700080934501089580EC80934701089582E5B8
:1007800080934501089581E580934501909342014E
:10079000089580E38093470108958CE0809347019A
:1007A00008952091B200909147018091B200821B80
:1007B0008917D8F3089584B18C6284B92A982D984A
:1007C0002091B200909147018091B200821B89175D
:1007D000D8F32A9A2091B200909147018091B200FB
:1007E000821B8917D8F32A98809143019091440184
:1007F0008251934019F0109246010895809145016D
:100800008CBD809142018DBD10924601089584B146
:10081000837D84B985B1837D85B91CBC0895CF9350
:10082000DF93D0E2E0914301F09144018CEA099515
:10083000E0914301F091440183E50995E091430182
:10084000F091440180E00995C82FE0914301F091B7
:10085000440180E00995C33599F11CBC2091B20098
:10086000909147018091B200821B8917D8F32A9A90
:100870002091B200909147018091B200821B8917AC
:10088000D8F32A982091B200909147018091B2004C
:10089000821B8917D8F380914301909144018251C2
:1008A000934039F0D15009F0BDCF81E0DF91CF9175
:1008B0000895809145018CBD809142018DBDF2CF9C
:1008C00080E0DF91CF910895CF93DF9300D000D0E7
:1008D000CDB7DEB769837A838B839C8369817A8104
:1008E0008B819C81A5DE8981880F880F880F887095
:1008F000E0914301F09144018062099589819A81D8
:10090000AB81BC8129E0B695A795979587952A95E7
:10091000D1F7E0914301F0914401099589819A81D1
:10092000AB81BC81B695A79597958795E0914301DA
:10093000F09144010995E0914301F091440180E078
:100940000F900F900F900F90DF91CF910994CF935C
:10095000DF9300D000D000D0CDB7DEB769837A83B3
:100960008B839C834D832E8369817A818B819C81CB
:100970005FDE8981880F880F880F8870E0914301BE
:10098000F09144018064099589819A81AB81BC8191
:1009900029E0B695A795979587952A95D1F7E09187
:1009A0004301F0914401099589819A81AB81BC8111
:1009B000B695A79597958795E0914301F0914401ED
:1009C0000995E0914301F09144018D8109958E8153
:1009D0008823F9F09D819F3731F18091B2008D839A
:1009E0009EE19E8369817A818B819C816DDF8F3747
:1009F00081F48091B2009D81891B8D3398F38091A1
:100A0000B2008D839E8191509E839111EBCF81E046
:100A100001C080E026960FB6F894DEBF0FBECDBFB2
:100A2000DF91CF9108958FE0ABD080E0F3CFCF93EB
:100A3000DF9300D000D000D0CDB7DEB769837A83D2
:100A40008B839C834D8369817A818B819C81F0DDCE
:100A5000E0914301F09144018CE4099589819A81E8
:100A6000AB81BC8129E0B695A795979587952A9586
:100A7000D1F7E0914301F0914401099589819A8170
:100A8000AB81BC81B695A79597958795E091430179
:100A9000F09144010995E0914301F091440180E017
:100AA00009958D818F3F31F19091B2009D838EE148
:100AB0008E8369817A818B819C8106DF8F3FC1F4AF
:100AC0008091B2009D81891B8D3398F38091B20093
:100AD0008D839E8191509E839111EBCF81E026966C
:100AE0000FB6F894DEBF0FBECDBFDF91CF91089552
:100AF00080E0F5CF8FE044D080E0F1CFCF93DF935B
:100B0000EC01E0914301F091440180EA0995E09104
:100B10004301F09144018D2F0995E0914301F0913B
:100B200044018C2F0995E0914301F091440180E04C
:100B3000DF91CF9109941F93CF93DF93D82F192F73
:100B4000C62FE0914301F091440180EC0995E091BA
:100B50004301F0914401812F0995E0914301F09107
:100B600044018D2F0995E0914301F09144018C2FB0
:100B700009958EE105D080E0DF91CF911F91089516
:100B8000882359F030E02091B2009091B200921B7E
:100B90009C33D8F33F5F8313F6CF08953B9A3A987E
:100BA000429A50E217D05A95E9F70895AC0188E6C9
:100BB00005D0842F03D089E601D0852F0FD028E0FF
:100BC00030E0382780FB869506D02A95D1F730FB98
:100BD00002D000D068943A98429A16F042983A9A15
:100BE000E0914801F09149013197F0F7439AE6B15D
:100BF000E2FBE0914801F09149013197F0F7439809
:100C0000089520ECE7DF46F42A95E1F780E02AE139
:100C1000E5DF2A95E9F7DECF28E030E0DBDF8695D7
:100C200087F938272A95D1F7D5DF27F9322772F3CC
:100C3000D1DFD0CFDB01742FB9DF84E2BFDFE1DF8A
:100C40008D937A95D1F70895DB01742FAFDF83EF91
:100C5000B5DF8DE1B3DF84E6B1DF8D91AFDF82E7F1
:100C6000ADDFCFDF8078D9F77A9589F70895BC0199
:100C7000660F771F80E89EE34CD3CB010197089560
:100C800084B5826484BD85B5816085BD17BC569AE4
:100C9000089571DB57985F98539A8FEFA895EFE905
:100CA000FFE03197F1F700C000008150B9F7579A83
:100CB0005F9A539878940895CF93DF93EC018981DC
:100CC000813091F1823009F467C0833009F442C069
:100CD000843009F465C0873009F47FC0853009F499
:100CE00099C0863009F49BC0883009F4EDC0893082
:100CF00009F4D9C08A3009F40AC18B3009F4C2C0A2
:100D00008C3009F40BC18D3009F41DC18E3009F40B
:100D10001FC18F3009F420C1803109F436C18F37EB
:100D200009F44CC180E00AC04D9B11C080910D01B7
:100D3000C5DC10920C01419A3EDD80E02FE031E0ED
:100D40003093270120932601DF91CF91089585E00C
:100D5000B5DCEFCFE0914301F09144018A81099520
:100D600080930F01E0914301F09144018B8109953B
:100D700080931001E0914301F09144018C81099529
:100D800080931101E0914301F09144018D81099517
:100D90008093120184E0D2CF3ADD419880E0CECF3B
:100DA00080910C0181110EC08A819B81092E000C5B
:100DB000AA0BBB0B8093080190930901A0930A0131
:100DC000B0930B018E819F81909307018093060160
:100DD00082E080930E018FEFB1CF80910C018111E1
:100DE0000EC08A819B81092E000CAA0BBB0B80933D
:100DF000080190930901A0930A01B0930B018E8121
:100E00009F81909307018093060183E080930E01F8
:100E10008FEF94CF04DD80930F0181E08FCF80911D
:100E20000C0181110EC08A819B81092E000CAA0B36
:100E3000BB0B8093080190930901A0930A01B09322
:100E40000B018C812D81922F9F709093030190E173
:100E5000299FA001112444275F70840F952F911DB5
:100E6000909305018093040120FD809302018E81FF
:100E70009F81909307018093060181E080930E018A
:100E80008FEF5CCF8A819B819093490180934801C9
:100E90002A9A229A83E074DE2A98419A80E170DED1
:100EA0007DDE80E04BCF81E080930C018A819B81C5
:100EB000AC81BD818093080190930901A0930A0140
:100EC000B0930B0180E03ACF80910C0181110EC0EC
:100ED0008A819B81092E000CAA0BBB0B8093080111
:100EE00090930901A0930A01B0930B0110920501A0
:100EF00010920401109203018E819F81909307014B
:100F00008093060184E080930E018FEF17CF8A81D2
:100F100080930D0110920F0181E010CF80EC4EDE26
:100F200080E04CDE8AE02CDE2A9A85E029DE2A98D1
:100F300085E026DE84B1837D84B985B1837D85B962
:100F4000419880E0FBCE5DDE80930F0181E0F6CE1C
:100F50008A8134DE80E0F2CE8A819B81092E000CEA
:100F6000AA0BBB0B8093080190930901A0930A017F
:100F7000B0930B018E819F819093070180930601AE
:100F800085E080930E018FEFD9CE8A819B81092E57
:100F9000000CAA0BBB0B8093080190930901A0934E
:100FA0000A01B0930B018E819F819093070180937A
:100FB000060186E080930E018FEFC0CE81E0809322
:100FC0000F0110921001109211011092120184E091
:100FD000B5CEFF920F931F93CF93DF93382F792FC6
:100FE000F62E20910E018EEF820F823028F12530EF
:100FF00009F062C0462F632F80910801909109018A
:1010000019DE8091080190910901A0910A01B09127
:101010000B018F0D911DA11DB11D809308019093AF
:101020000901A0930A01B0930B018F2DDF91CF919D
:101030001F910F91FF9008956623A9F180910801F7
:1010400090910901A0910A01B0910B01C32FD72FF4
:101050000FEF060F0C0F1D2F111D1BC04FDD8883D6
:101060008091080190910901A0910A01B0910B01B2
:101070000196A11DB11D8093080190930901A093D1
:101080000A01B0930B01C017D10751F020910E0156
:101090002196223019F7BC01CD0116DC8883E0CF00
:1010A00087E08F1510F210920E018F2DDF91CF91F6
:1010B0001F910F91FF900895FF24FA948F2DDF91D7
:1010C000CF911F910F91FF900895FF920F931F935F
:1010D000CF93DF9300D000D000D0CDB7DEB7382F4C
:1010E000792F062F20910E012130F1F12430E1F10A
:1010F000263009F0D5C0462F682F809108019091C5
:101100000901A2DD8091080190910901A0910A01D5
:10111000B0910B01800F911DA11DB11D809308019D
:1011200090930901A0930A01B0930B0180910601ED
:1011300090910701801B910990930701809306010C
:10114000892B09F0ABC010920E01FF24F3948F2D70
:1011500026960FB6F894DEBF0FBECDBFDF91CF91BC
:101160001F910F91FF900895002309F497C080917B
:10117000080190910901A0910A01B0910B013D83F2
:101180007E836D817E816F5F7F4F0150060F172F29
:10119000111DF12C52C02091040130910501232B27
:1011A00009F059C021E0BC01CD01D1DB209106013D
:1011B0003091070121503109309307012093060136
:1011C0008091080190910901A0910A01B0910B0151
:1011D000232B01F510920E012091030121FF38C04D
:1011E000409102012091040130910501421713063C
:1011F00079F1ED81FE8131974081BC01CD0117DC91
:101200008091080190910901A0910A01B0910B0110
:10121000FF24F3940196A11DB11D809308019093C2
:101220000901A0930A01B0930B01ED81FE810E1715
:101230001F0709F48CCF20910E01ED81FE814191B1
:10124000FE83ED83213009F4A6CF642F74DCAECF8A
:10125000FF24F394DFCF20E0BC01CD0178DB809147
:1012600002018150809302018111A0CF8091080179
:1012700090910901A0910A01B0910B0189839A8391
:10128000AB83BC83ED81FE8131974081BC01CD01F0
:10129000CEDB809104018093020188CFF12C57CFDF
:1012A000FF24FA9454CF14B817B81AB81BB818B85A
:1012B00015B855985D9A87B1836087B94198409A6F
:1012C0005A98579A5F9A88E19EE00FB6F894A895CD
:1012D000809360000FBE909360009FEF8FEFA89502
:1012E0008150E9F79150D1F784B1837C84B9809122
:1012F000B10084608093B10084B5826484BD85B5FB
:10130000816085BD17BC569AC4DC7894A895D7D661
:10131000FDCFAA1BBB1B51E107C0AA1FBB1FA6170D
:10132000B70710F0A61BB70B881F991F5A95A9F78E
:0E13300080959095BC01CD010895F894FFCFF3
:02133E00FF5A54
:00000001FF
